:020000040800F2
:1000000000000C20A17C050825CE000829CE0008A0
:1000100041CE000845CE000849CE0008F17C050815
:10002000000000000000000000000000C170020895
:1000300051CE00080000000051700208C5CE000833
:10004000F17C0508F17C0508F17C0508F17C0508C8
:10005000F17C0508F17C0508F17C0508F17C0508B8
:10006000F17C0508F17C0508F17C0508F17C0508A8
:10007000F17C0508F17C0508F17C0508F17C050898
:10008000F17C0508F17C0508F17C0508F17C050888
:10009000F17C0508F17C0508F17C0508F17C050878
:1000A000F17C050855CE000861CE0008F17C0508FA
:1000B000F17C05086DCE0008F17C0508F17C05088F
:1000C000F17C050885CE000899CE000879CE00089D
:1000D000F17C0508F17C0508F17C0508F17C050838
:1000E000F17C0508F17C0508F17C0508F17C050828
:1000F000F17C0508F17C0508F17C0508F17C050818
:10010000F17C0508ADCE0008F17C0508F17C0508FE
:10011000F17C0508F17C0508F17C0508F17C0508F7
:10012000F17C0508F17C0508F17C0508F17C0508E7
:10013000B1CE0008C5490008F17C0508F17C05082E
:10014000F17C0508F17C0508F17C0508F17C0508C7
:10015000F17C0508F17C0508F17C0508F17C0508B7
:10016000F17C0508F17C0508F17C0508F17C0508A7
:10017000F17C0508F17C0508F17C0508F17C050897
:10018000F17C0508F17C0508F17C0508F17C050887
:10019000F17C0508F17C0508F17C0508F17C050877
:1001A000F17C0508F17C0508F17C0508F17C050867
:1001B000F17C0508F17C0508F17C0508F17C050857
:1001C000F17C0508F17C0508F17C0508F17C050847
:1001D000F17C0508F17C0508F17C0508F17C050837
:1001E000F17C0508F17C0508F17C0508F17C050827
:1001F000F17C0508F17C0508F17C0508F17C050817
:10020000F17C0508F17C0508F17C0508F17C050806
:10021000F17C0508F17C0508F17C0508F17C0508F6
:100220001D920508F17C0508F17C0508F17C0508A4
:04023000F17C050850
:1002400010B5054C237833B9044B13B1044800E0D2
:1002500000BF0123237010BD00100020000000002B
:100260009CFB050808B5034B1BB10349034800E09C
:1002700000BF08BD00000000041000209CFB050822
:1002800010F8012B11F8013B012A28BF9A42F7D040
:10029000D01A7047034613F8012B002AFBD1181A15
:1002A0000138704781F0004102E000BF83F0004355
:1002B00030B54FEA41044FEA430594EA050F08BF01
:1002C00090EA020F1FBF54EA000C55EA020C7FEAC5
:1002D000645C7FEA655C00F0E2804FEA5454D4EB42
:1002E0005555B8BF6D420CDD2C4480EA020281EA0C
:1002F000030382EA000083EA010180EA020281EA44
:100300000303362D88BF30BD11F0004F4FEA013195
:100310004FF4801C4CEA113102D0404261EB4101A4
:1003200013F0004F4FEA03334CEA133302D052422A
:1003300063EB430394EA050F00F0A780A4F10104E6
:10034000D5F1200E0DDB02FA0EFC22FA05F2801820
:1003500041F1000103FA0EF2801843FA05F3594106
:100360000EE0A5F120050EF1200E012A03FA0EFC85
:1003700028BF4CF0020C43FA05F3C01851EBE371AF
:1003800001F0004507D54FF0000EDCF1000C7EEBCC
:1003900000006EEB0101B1F5801F1BD3B1F5001F0A
:1003A0000CD349085FEA30004FEA3C0C04F1010429
:1003B0004FEA445212F5800F80F09A80BCF1004F52
:1003C00008BF5FEA500C50F1000041EB045141EAD4
:1003D000050130BD5FEA4C0C404141EB0101013C9D
:1003E00028BFB1F5801FE9D291F0000F04BF01468C
:1003F0000020B1FA81F308BF2033A3F10B03B3F15E
:1004000020020CDA0C3208DD02F1140CC2F10C02ED
:1004100001FA0CF021FA02F10CE002F11402D8BF4B
:10042000C2F1200C01FA02F120FA0CFCDCBF41EA17
:100430000C019040E41AA2BF01EB0451294330BDE6
:100440006FEA04041F3C1CDA0C340EDC04F11404C3
:10045000C4F1200220FA04F001FA02F340EA03009A
:1004600021FA04F345EA030130BDC4F10C04C4F1E0
:10047000200220FA02F001FA04F340EA03002946C0
:1004800030BD21FA04F0294630BD94F0000F83F40A
:10049000801306BF81F480110134013D4EE77FEAED
:1004A000645C18BF7FEA655C29D094EA050F08BF39
:1004B00090EA020F05D054EA000C04BF194610461A
:1004C00030BD91EA030F1EBF0021002030BD5FEA5E
:1004D000545C05D14000494128BF41F0004130BD86
:1004E00014F580043CBF01F5801130BD01F00045DA
:1004F00045F0FE4141F470014FF0000030BD7FEA4D
:10050000645C1ABF194610467FEA655C1CBF0B4647
:10051000024650EA013406BF52EA033591EA030F5E
:1005200041F4002130BD00BF90F0000F04BF002156
:10053000704730B54FF4806404F132044FF0000589
:100540004FF0000150E700BF90F0000F04BF002102
:10055000704730B54FF4806404F1320410F0004568
:1005600048BF40424FF000013EE700BF42004FEA63
:10057000E2014FEA31014FEA02701FBF12F07F43E0
:1005800093F07F4F81F06051704732F07F4208BF97
:10059000704793F07F4F04BF41F40021704730B59E
:1005A0004FF4607401F0004521F000411CE700BFEA
:1005B00050EA010208BF704730B54FF000050AE06D
:1005C00050EA010208BF704730B511F0004502D56E
:1005D000404261EB41014FF4806404F132045FEA70
:1005E000915C3FF4D8AE4FF003025FEADC0C18BF19
:1005F00003325FEADC0C18BF033202EBDC02C2F10B
:10060000200300FA03FC20FA02F001FA03FE40EA9C
:100610000E0021FA02F11444BDE600BF70B54FF0A0
:10062000FF0C4CF4E06C1CEA11541DBF1CEA13557E
:1006300094EA0C0F95EA0C0F00F0DEF82C4481EAE6
:10064000030621EA4C5123EA4C5350EA013518BF06
:1006500052EA033541F4801143F4801338D0A0FBF3
:1006600002CE4FF00005E1FB02E506F00042E0FBA0
:1006700003E54FF00006E1FB03569CF0000F18BFA6
:100680004EF0010EA4F1FF04B6F5007F64F540744E
:1006900004D25FEA4E0E6D4146EB060642EAC621E1
:1006A00041EA55514FEAC52040EA5E504FEACE2E4E
:1006B000B4F1FD0C88BFBCF5E06F1ED8BEF1004F51
:1006C00008BF5FEA500E50F1000041EB045170BDCD
:1006D00006F0004646EA010140EA020081EA030111
:1006E000B4EB5C04C2BFD4EB0C0541EA045170BD0D
:1006F00041F480114FF0000E013C00F3AB8014F187
:10070000360FDEBF002001F0004170BDC4F10004CF
:10071000203C35DA0C341BDC04F11404C4F1200550
:1007200000FA05F320FA04F001FA05F240EA0200AB
:1007300001F0004221F0004110EBD37021FA04F6E1
:1007400042EB06015EEA430E08BF20EAD37070BD9B
:10075000C4F10C04C4F1200500FA04F320FA05F0FA
:1007600001FA04F240EA020001F0004110EBD370FC
:1007700041F100015EEA430E08BF20EAD37070BD6C
:10078000C4F1200500FA05F24EEA020E20FA04F345
:1007900001FA05F243EA020321FA04F001F00041F4
:1007A00021FA04F220EA020000EBD3705EEA430E65
:1007B00008BF20EAD37070BD94F0000F0FD101F094
:1007C0000046400041EB010111F4801F08BF013CCD
:1007D000F7D041EA060195F0000F18BF704703F00B
:1007E0000046520043EB030313F4801F08BF013D92
:1007F000F7D043EA0603704794EA0C0F0CEA13554E
:1008000018BF95EA0C0F0CD050EA410618BF52EA07
:100810004306D1D181EA030101F000414FF000000D
:1008200070BD50EA410606BF1046194652EA43061B
:1008300019D094EA0C0F02D150EA013613D195EA8F
:100840000C0F05D152EA03361CBF104619460AD1D7
:1008500081EA030101F0004141F0FE4141F47001E1
:100860004FF0000070BD41F0FE4141F4780170BDD1
:1008700070B54FF0FF0C4CF4E06C1CEA11541DBF36
:100880001CEA135594EA0C0F95EA0C0F00F0A7F838
:10089000A4EB050481EA030E52EA03354FEA013165
:1008A00000F088804FEA03334FF0805545EA131378
:1008B00043EA12634FEA022245EA111545EA106540
:1008C0004FEA00260EF000419D4208BF964244F1D7
:1008D000FD0404F5407402D25B084FEA3202B61AF6
:1008E00065EB03055B084FEA32024FF480104FF4CA
:1008F000002CB6EB020E75EB030E22BFB61A75463E
:1009000040EA0C005B084FEA3202B6EB020E75EBD0
:10091000030E22BFB61A754640EA5C005B084FEA38
:100920003202B6EB020E75EB030E22BFB61A754605
:1009300040EA9C005B084FEA3202B6EB020E75EB10
:10094000030E22BFB61A754640EADC0055EA060ED1
:1009500018D04FEA051545EA16754FEA06164FEA14
:10096000C30343EA52734FEAC2025FEA1C1CC0D1C0
:1009700011F4801F0BD141EA00014FF000004FF04D
:10098000004CB6E711F4801F04BF01430020B4F10E
:10099000FD0C88BFBCF5E06F3FF6AFAEB5EB030CC6
:1009A00004BFB6EB020C5FEA500C50F1000041EBC3
:1009B000045170BD0EF0004E4EEA113114EB5C0490
:1009C000C2BFD4EB0C0541EA045170BD41F4801163
:1009D0004FF0000E013C90E645EA060E8DE60CEA6B
:1009E000135594EA0C0F08BF95EA0C0F3FF43BAF88
:1009F00094EA0C0F0AD150EA01347FF434AF95EA3F
:100A00000C0F7FF425AF104619462CE795EA0C0F22
:100A100006D152EA03353FF4FDAE1046194622E7EF
:100A200050EA410618BF52EA43067FF4C5AE50EAC9
:100A300041047FF40DAF52EA43057FF4EBAE12E7B9
:100A40004FF0FF3C06E000BF4FF0010C02E000BF9A
:100A50004FF0010C4DF804CD4FEA410C7FEA6C5C7D
:100A60004FEA430C18BF7FEA6C5C1BD001B050EA20
:100A7000410C0CBF52EA430C91EA030F02BF90EA0B
:100A8000020F0020704710F1000F91EA030F58BFCA
:100A9000994208BF90422CBFD8176FEAE37040F02C
:100AA000010070474FEA410C7FEA6C5C02D150EACA
:100AB000013C07D14FEA430C7FEA6C5CD6D152EA85
:100AC000033CD3D05DF8040B704700BF844610464A
:100AD00062468C461946634600E000BF01B5FFF749
:100AE000B7FF002848BF10F1000F01BD4DF808ED19
:100AF000FFF7F4FF0CBF012000205DF808FB00BFEA
:100B00004DF808EDFFF7EAFF34BF012000205DF843
:100B100008FB00BF4DF808EDFFF7E0FF94BF012090
:100B200000205DF808FB00BF4DF808EDFFF7CEFF91
:100B300094BF012000205DF808FB00BF4DF808EDD0
:100B4000FFF7C4FF34BF012000205DF808FB00BFA1
:100B50004FEA410C7FEA6C5C02D150EA013C0AD1B9
:100B60004FEA430C7FEA6C5C02D152EA033C02D1AB
:100B70004FF0000070474FF0010070474FEA41020C
:100B800012F5001215D211D56FF47873B3EB6252DF
:100B900012D94FEAC12343F0004343EA505311F006
:100BA000004F23FA02F018BF404270474FF0000098
:100BB000704750EA013005D111F0004008BF6FF0D6
:100BC000004070474FF00000704700BF4FEA4102FD
:100BD000B2F1E04324BFB3F5001CDCF1FE5C0DD99B
:100BE00001F0004C4FEAC0024CEA5070B2F1004FE5
:100BF00040EB830008BF20F00100704711F0804FE8
:100C000021D113F13872BCBF01F00040704741F4AC
:100C100080114FEA5252C2F11802C2F1200C10FAB0
:100C20000CF320FA02F018BF40F001004FEAC12394
:100C30004FEAD32303FA0CFC40EA0C0023FA02F338
:100C40004FEA4303CCE77FEA625307D150EA01330E
:100C50001EBF4FF0FE4040F44000704701F00040DE
:100C600040F0FE4040F40000704700BF53B94AB95D
:100C7000002908BF00281CBF4FF0FF314FF0FF30A4
:100C800000F096B9ADF1080C6DE904CE00F01AF849
:100C9000DDF804E0DDE9022304B07047430803F007
:100CA0005533C01A830800F0333003F0333318444F
:100CB00000EB101000F00F3000EB002000EB0040C4
:100CC000000E70472DE9F04F099D04460F46002B9A
:100CD00048D18A42944661D9B2FA82F343B1C3F152
:100CE00020019F4002FA03FC9C4020FA01F10F43CF
:100CF0004FEA1C411FFA8CFE220CB7FBF1F601FBF8
:100D0000167706FB0EF042EA0742904208D91CEB28
:100D1000020206F1FF3702D2904200F237813E46CE
:100D2000121AA4B2B2FBF1F001FB102200FB0EFE7E
:100D300044EA0244A64508D91CEB040400F1FF3242
:100D400002D2A64500F21C81104640EA0640A4EB00
:100D50000E0400261DB1DC400023C5E900433146E6
:100D6000BDE8F08F8B4209D9002D00F0FD800026F0
:100D7000C5E9000130463146BDE8F08FB3FA83F68D
:100D8000002E4BD18B42C0F0F280824240F2EF80C5
:100D90003046002DE3D0C5E90047E0E702B9FFDEA9
:100DA000B2FA82F3002B40F09D80891A4FEA124E6E
:100DB00097B20126200CB1FBFEF20EFB121140EAA5
:100DC000014107FB02F088420FD91CEB010102F13F
:100DD000FF382CBF4FF001094FF00009884203D9BA
:100DE000B9F1000F00F0CF804246091AA4B2B1FB5E
:100DF000FEF00EFB101100FB07F744EA0144A74286
:100E000008D91CEB040400F1FF3102D2A74200F222
:100E1000B4800846E41B40EA02409BE7C6F1200785
:100E2000B34001FA06F422FA07FCF940B2404CEA5A
:100E3000030C20FA07F34FEA1C491C431FFA8CFEEF
:100E400000FA06F3200CB1FBF9F809FB181140EA8F
:100E5000014108FB0EF088420FD91CEB010108F19B
:100E6000FF3A2CBF4FF0010B4FF0000B884203D923
:100E7000BBF1000F00F08D80D046091AA4B2B1FB7F
:100E8000F9F009FB101100FB0EFE44EA01418E450A
:100E900007D91CEB010100F1FF3401D28E457FD848
:100EA000204640EA0840A1EB0E01A0FB0298414514
:100EB0004C46C64602D306D14B4504D20138B9EBA5
:100EC000020468EB0C0E002D70D01A1B61EB0E01B2
:100ED00022FA06F301FA07F7F14000261F43C5E99D
:100EE00000713CE702FA03FCC3F1200001FA03F2AF
:100EF00021FA00F64FEA1C4E24FA00F11FFA8CF793
:100F00009C401143B6FBFEF00A0C0EFB106642EA51
:100F1000064200FB07F696420ED91CEB020200F1D6
:100F2000FF382CBF4FF001094FF00009964202D95B
:100F3000B9F1000F31D04046921B89B2B2FBFEF6E8
:100F40000EFB162241EA024106FB07F28A4207D94C
:100F50001CEB010106F1FF3801D28A4223D8464634
:100F6000891A46EA004625E72E462846F7E6841AFF
:100F700061EB030301201F460BE76444023849E795
:100F800064440238E1E6023A61442EE7023E6244DC
:100F9000C6E6A8F1020861446FE702386244CBE775
:100FA000023861447DE7023E6144D9E72E46D6E629
:100FB000704700BF844690ED007A0123002000E0D6
:100FC00001338B4211D20CEB8302D2ED007AF4EEA6
:100FD000C77AF1EE10FAF3DDF4EEC07AF1EE10FA12
:100FE000EEDD1846B0EE677AEAE770474B78834249
:100FF00004D000238B704870002070478B78022B40
:1010000002D801338B70F6E7032B02D000238B70DC
:10101000F1E70871EFE700009FED347A00230DE05F
:1010200003F1200201EB8202D2ED017AF4EEC77ADD
:10103000F1EE10FA01D5B0EE677A01333F2B0BDCED
:10104000CA1892F84420002AF7D0CA181279052A43
:10105000E6D0092AF1D1E3E7DFED257AB4EEE77AAD
:10106000F1EE10FA09D5DFED237AB4EEE77AF1EE6E
:1010700010FA02DD0123037001E000230370002356
:101080001FE003F1200201EB8202D2ED016ADFEDE5
:101090001A7A77EE277AF4EEE76AF1EE10FA20D4A6
:1010A000002200E000225AB903F1200201EB820283
:1010B0001248506003F1600201EB82020020506090
:1010C00001333F2B0FDCCA1892F84420002AE9D0E4
:1010D000CA181279052AD4D0CA7F092AD1D0002291
:1010E000E1E70122DFE70020704700BF00007A45FA
:1010F0000000AF43000016430000F04200007A45B4
:10110000002325E003F1200201EB8202D2ED017AF7
:101110009FED117A77EEC77ADA0000EBC30CDFEDB2
:101120000F6A87EEA67A8CED007A03F1600C01EB72
:101130008C0CDCED017A9FED0A7A77EEC77A0432E7
:101140000244DFED086A87EEA67A82ED007A013369
:101150003F2BD7DD002070470080934300001643EB
:10116000000029430000944310B51446137843B19E
:101170009FED050AFFF71EFF2146FFF737FF00200E
:1011800010BD0020F8E700BFAE47613F10B582B048
:10119000194B0193194C002201A9204656F09CFAE4
:1011A0000021206856F0D2F9154B18600021206804
:1011B00056F0DCF9134B186000230AE0C3EBC301BF
:1011C0000F4A126802EB810251680F4A42F823105D
:1011D0000133002BF2DD0023002B02DD002002B0E2
:1011E00010BDC3EBC30200EB82025168074A42F80C
:1011F00023100133F0E700BF301000202C10002036
:101200001C10002020100020241000202810002096
:1012100070B505460E4611F0D5FE286000242FE07B
:1012200004F5F07306EB4303B3F90400FFF78CF900
:101230000022154BFFF7F2F9FFF7C8FC04F1200379
:1012400005EB8303586004F1900306EB83035868B1
:10125000FFF76AF900224FF07D53FFF7DFF9FFF740
:10126000B5FC04F1600305EB83035860321992F872
:1012700084142B19197192F8042183F84420013445
:101280003F2CCDDD002070BD0000D03F08B5084BDD
:101290001B685860074A126851601946064B186867
:1012A00056F05CFA0028CCBF0020012008BD00BF2A
:1012B0001C100020201000202C10002008B5FFF783
:1012C00065FF002800DB08BD02485CF02DFA0BF03A
:1012D000BDFDF8E7C401060838B5044600F58155A0
:1012E000083500F52D612846FFF792FF00280DDB39
:1012F000294604F595500C30FFF78EFE00280BDBD5
:1013000004F5805393F8AC3263B938BD0C485CF0F7
:101310000BFA0BF09BFDEBE70A485CF005FA0BF0CB
:1013200095FDEDE7294604F595501430FFF7E8FEEA
:101330000028EADA04485CF0F7F90BF087FDE4E7EF
:10134000D4010608EC0106080402060808B500F5F9
:10135000A551143100F595501430FFF797FF002880
:1013600000DB08BD02485CF0DFF90BF06FFDF8E729
:101370001C02060808B500F595520C32082100F54C
:10138000A5501430FFF7F0FE002800DB08BD03482D
:101390005CF0CAF90BF05AFDF8E700BF1C02060822
:1013A00030B583B0144B1B6833B1002000F084F9D2
:1013B000124B186003B030BD01250F4B1D6001A911
:1013C000002000F02BF90E49002000F041F90D49F2
:1013D00003230B601E234B6005238B600024CC602D
:1013E0000D61204600F04EF92946204600F07CF9B8
:1013F000024B1860D9E700BF54290020582900206B
:10140000302900204029002010B5124C0022012173
:10141000204613F0D6F802200BF0C2FC0122114640
:10142000204613F0CEF802200BF0BAFC04F5C054AD
:1014300000220221204613F0C4F802200BF0B0FC79
:1014400001220221204613F0BCF802200BF0A8FC78
:1014500010BD00BF0004024210B588B004465223FC
:10146000ADF81030224B0293224B0393224B05938D
:10147000224B0693224B079302A922480DF08FFDC1
:1014800050BB214B214A43F824201E48204B43F8EF
:10149000240001A90DF0CDFB08BB019A4FF2020315
:1014A0009A421FD1184B53F824301B68184A52F83F
:1014B00024009847C8B9144B53F82430DB68154909
:1014C00001EB0411124A52F82400984708B908B0F9
:1014D00010BD6FF00400FAE76FF00400F7E76FF05B
:1014E0000400F4E76FF00600F1E76FF00400EEE7A8
:1014F00089D70008ADD5000815D600088DD600089C
:1015000005D700087429002060290020C8030020A6
:101510005C29002064290020002871D12DE9F043C6
:1015200087B0074600240194029403940494059420
:10153000354BD3F88C2042F01002C3F88C20D3F83E
:101540008C3003F010030093009B304E224618218C
:10155000304613F036F8DFF8C08001220221404601
:1015600013F02FF801221146304613F02AF8102309
:101570000193012502950394049401A9304612F0C9
:1015800089FE4FF440730193122302930394049451
:10159000042305930DEB0301304612F07BFE082374
:1015A000019302954FF00209CDF80C90049401A923
:1015B000304612F06FFECDF8049002950395049426
:1015C00001A9404612F066FE20230193104B0293BE
:1015D000039401A90F4812F05DFE01950295039551
:1015E000049401A9304612F055FEFFF70DFF38466E
:1015F000FFF732FF08B14FF0FF3007B0BDE8F083CE
:101600006FF00100704700BF000C02460004024268
:101610000000211000180242001C024280B908B5E7
:101620000346094A52F820209268084850F82300DF
:101630009047002801DB002008BD6FF00400FBE7A5
:101640006FF00100704700BF602900205C29002076
:1016500080B908B50346094A52F82020D2680848E4
:1016600050F823009047002801DB002008BD6FF0F0
:101670000400FBE76FF00100704700BF6029002005
:101680005C29002080B908B50346094A52F8202099
:101690001269084850F823009047002801DB002019
:1016A00008BD6FF00400FBE76FF00100704700BF5A
:1016B000602900205C29002078B908B5084A52F852
:1016C0002020D269074951F820009047002801DB0B
:1016D000002008BD6FF00400FBE76FF001007047C9
:1016E000602900205C29002080B908B50346094A1A
:1016F00052F82020126A084850F82300904700282A
:1017000001DB002008BD6FF00400FBE76FF0010073
:10171000704700BF602900205C2900200F4B1B6828
:1017200003B1704710B582B000220421202022F0BE
:1017300003FA0A4B186000240BE0094B03EB041377
:10174000019300231A4601A90448006822F07EFA9A
:1017500001341F2CF1D902B010BD00BF503600205B
:101760005034002000B583B0024600230193104B93
:101770001868B0B14FF47A7303FB02F20D4BA3FB70
:101780000232920901A922F041FC18B1019803B07C
:101790005DF804FB084B57220849094803F0C4FDD3
:1017A000F4E7084B5C220549054803F0BDFDEDE771
:1017B00050360020D34D62102C0206089202060813
:1017C000AC020608B002060800B585B00390134BC2
:1017D0001868A8B1039B124A934203D302F5007222
:1017E000934215D900930F4B70220F490F4803F015
:1017F0009BFD0020003818BF012005B05DF804FBF8
:101800000B4B6A220849094803F08EFD0020F1E7DE
:1018100000231A4603A922F019FAEBE750360020FC
:1018200050340020D002060892020608AC020608D6
:10183000B002060838B5B0B1044624F02BFC0546CA
:10184000D4F85C0122F0C8F9854206D0234B40F25F
:10185000E6222349234803F067FD0023C4F84C31F6
:10186000C4F850311FE003F00FFD1F4B40F2E5229A
:101870001B491C4803F058FD03F006FD00BFFDE7BF
:10188000E218802182F8781003F1200204EB820232
:101890000021516003EB4302900004EB820251608F
:1018A000215411810133092BEAD900230DE004EB07
:1018B00003120021C2F8B010C2F8AC1003F10B0201
:1018C00004EB0212916051600133092BEFD9002320
:1018D000C4F85831C4F8543138BD00BF800306083D
:1018E00066030608780306080C03060868B100B50D
:1018F00083B00023009301234FF00042032140688E
:1019000024F0BAFD03B05DF804FB704708B523F07E
:1019100043FE024B1B68C01A08BD00BF54360020AE
:1019200030B585B00023039308B30C46054601B3D8
:101930004FF47A7303FB02F2114BA3FB02329209BC
:10194000009203AB4FF0FF320021032024F02AFD68
:10195000034678B1039B002B02DA0023236009E0E1
:1019600000222146286822F051FB034602E00023B2
:1019700000E00023181E18BF012005B030BD00BFD5
:10198000D34D621030B583B0C8B10546C9B14FF42C
:101990007A7303FB02F20E4BA3FB0232002392097F
:1019A000006822F053F90446686858B10023009398
:1019B00001234FF08042032124F05EFD02E0002469
:1019C00000E00024201E18BF012003B030BD00BF7E
:1019D000D34D621038B5C0B10446D0F85C319BB12C
:1019E00024F058FB0546D4F85C0122F0F5F8854256
:1019F00006D00C4B4FF437720B490C4803F094FCA3
:101A0000D4F85C0122F0F8FD38BD03F03DFC084B32
:101A10004FF436720449054803F086FC03F034FCA9
:101A200000BFFDE780030608660306087803060882
:101A30000C030608C0B110B50446D0F8B80108B1CF
:101A400022F0DAFDD4F8240308B121F073FED4F8B3
:101A50003C0308B121F06EFE04F5E070FFF7BAFF19
:101A6000204621F067FE10BD7047000030B583B0FE
:101A700010B30446012022F0B9F9C4F85C01002833
:101A80004ED034B3D4F85C317BB324F003FB05466D
:101A9000D4F85C0122F0A0F8854232D04FF0FF313B
:101AA000D4F85C0122F064FB002831D02046FFF717
:101AB000C1FE002003B030BD03F0E6FB194B40F23D
:101AC00007321949194803F02FFC03F0DDFB00BF72
:101AD000FDE703F0D9FB134BDD221349134803F054
:101AE00023FC03F0D1FB00BFFDE703F0CDFB0D4B62
:101AF000DE220D490D4803F017FC03F0C5FB00BFC3
:101B0000FDE70B4BE0220849084803F00DFCC5E750
:101B10000090084BEB220449074803F005FCC5E799
:101B20000220C7E70C0306086603060878030608C8
:101B3000800306089C030608AC020608F0B583B0D3
:101B40001F4601230193002300930446002835D04B
:101B50000D46164600293AD0002A41D04FF4527261
:101B600000215AF0A5FFC4F89061C4F89471C4F83C
:101B7000A051574BC4F89C31564BC4F898310123FF
:101B800084F820334FF49663A4F82233524BC4F800
:101B90002C335A23A4F830336946002006F020F88D
:101BA000C4F8240300283DD0009B002B3AD0B3F5A5
:101BB000803F37D2A4F82833002519E0474B40F284
:101BC00042324749474803F0AFFB012510E0464B3E
:101BD00040F247324249434803F0A6FB012507E0A3
:101BE000424B4FF453723E493E4803F09DFB0125A2
:101BF0000DB37DB904F5DC73C4F8A4313C4BC4F8D3
:101C0000A8313C4BC4F8AC313B4BC4F8B0313B4B32
:101C1000C4F8B4312DB3002D38D0002D49D028465A
:101C200003B0F0BD364B40F272322D492D4803F01F
:101C30007BFB0225DDE700220421202021F07CFF30
:101C4000C4F8B80120B124F025FAC4F8BC01D0E7EB
:101C50002C4B40F27F322249224803F065FB0225DB
:101C6000F1E704F55071012005F0BAFFC4F83C0318
:101C7000D4F840330BB10028CDD1234B40F297323A
:101C80001749184803F050FB0225C6E701A90220B6
:101C900005F0E0FFC4F8440310B1019B002BBCD158
:101CA0001A4B40F2A3320E490E4803F03DFB0225C9
:101CB000B5E704F5E070FFF7D9FE05460028AED081
:101CC000134B40F2AE320649064803F02DFBA6E75F
:101CD00055A20008DDA0000828040608C403060871
:101CE00066030608AC020608E003060804040608BA
:101CF000851900082119000865170008C917000890
:101D000084040608B4040608E4040608100506085E
:101D10003C0506082DE9F04389B018B31546D0F804
:101D2000887167B3002A37D0002F42D0D7F85C31D2
:101D3000002B4AD024F0AEF90446D7F85C0121F01C
:101D40004BFF84424DD04FF0FF31D7F85C0122F0B9
:101D50000FFA044600284BD0002C00F0B680002477
:101D6000A04651E003F090FA6F4B40F2A5226F4974
:101D70006F4803F0D9FA03F087FA00BFFDE703F0DC
:101D800083FA694B40F2A6226849694803F0CCFA0D
:101D900003F07AFA00BFFDE703F076FA624B40F2F7
:101DA000A7226249624803F0BFFA03F06DFA00BF50
:101DB000FDE703F069FA5C4BDD225C495C4803F007
:101DC000B3FA03F061FA00BFFDE703F05DFA564B8A
:101DD000DE225649564803F0A7FA03F055FA00BF31
:101DE000FDE7544BE0225149514803F09DFAAAE720
:101DF0000090514BEB224D49504803F095FAABE768
:101E000000239946EBB90134092C3FD804F10B03A8
:101E100007EB03139E68002EF5D000238DF81F30CA
:101E2000338972680DF11F010091298968681AF0E1
:101E3000A5FD0028E4D19DF81F30002BE1D001233F
:101E4000DFE704F10B0307EB0313586823F0B0FB43
:101E50000346C8B12A893189706804900391696882
:101E6000029101920093364B40F2BF222F49354830
:101E700003F05AFA07EB0413D3F8AC202946D3F841
:101E8000B0009047C846BEE72F4BE3E75FB3D7F8F3
:101E90005C31002B33D024F0FDF80446D7F85C0108
:101EA00021F09AFE844205D0224BF9221F49204896
:101EB00003F03AFA00231A461946D7F85C0121F0DC
:101EC000C5FE40B3B8F1000F0AD12B896A680192B0
:101ED00000931E4B40F2CF2214491D4803F024FA10
:101EE00009B0BDE8F08303F0CFF90F4BF7220F499B
:101EF0000F4803F019FA03F0C7F900BFFDE703F03C
:101F0000C3F9094BF8220949094803F00DFA03F017
:101F1000BBF900BFFDE700900E4B40F203120349EE
:101F2000064803F001FACDE70C030608660306082D
:101F300078030608800306089C030608AC0206081E
:101F400078050608B405060870050608E4050608C5
:101F500030060608B8050608F0B583B0C9B10C46CE
:101F6000D1F85C3113B324F095F80546D4F85C0140
:101F700021F032FE854226D003F086F9874B40F2ED
:101F800052228749874803F0CFF903F07DF900BF5B
:101F9000FDE703F079F9814B4FF4147280498148D1
:101FA00003F0C2F903F070F900BFFDE703F06CF92C
:101FB0007A4B40F251227A497A4803F0B5F903F09E
:101FC00063F900BFFDE704F1AC0724B187B100233A
:101FD0001E461D466EE003F057F9704B4FF4B17288
:101FE0006F49704803F0A0F903F04EF900BFFDE718
:101FF00003F04AF9694B40F263126949694803F0FA
:1020000093F903F041F900BFFDE7BCF8081000297F
:102010005AD1092D58D8AB425FD35D1C5DE003F067
:1020200033F95E4B40F24B125D495E4803F07CF998
:1020300003F02AF900BFFDE703F026F9574B4FF4F0
:10204000A6725749574803F06FF903F01DF900BF16
:10205000FDE703F019F9514B40F24D125049514838
:1020600003F062F903F010F900BFFDE703F00CF98B
:102070004A4B4FF4A7724A494A4803F055F903F016
:1020800003F900BFFDE70132092A10D807EB021C53
:10209000DCF80C0005EB450104EB81018842F2D12C
:1020A00003EB430104EB8101CCF80C10EBE70136A4
:1020B00001350133092B2FD803EB430C04EB8C0CB7
:1020C000DCF80420002AA0D0002AF2D0BCF80820B6
:1020D000002AEED00136ECE70135092DE9D805EBF1
:1020E000450E04EB8E0EBEF80820002AF4D09EE8C0
:1020F00007008CE807000022CEF80020CEF804206C
:10210000CEF80820002F8AD0002C95D0092DA0D819
:10211000092BABD80022B7E7C4F84C61E4B1D4F87E
:102120005C312BB323F0B6FF0546D4F85C0121F0F7
:1021300053FD854205D01C4BF9221949194803F07B
:10214000F3F800231A461946D4F85C0121F07EFD0D
:10215000D0B1002003B0F0BD03F096F80F4BF7228A
:102160000F49104803F0E0F803F08EF800BFFDE7D8
:1021700003F08AF8094BF82209490A4803F0D4F819
:1021800003F082F800BFFDE70090084B40F2031215
:102190000349074803F0C8F8DBE700BF0C03060853
:1021A000660306087803060880030608B8050608D3
:1021B000AC02060800B583B0002200920123102172
:1021C0000448006821F0A2F8C0F3001003B05DF8E5
:1021D00004FB00BFC0630520014B1868704700BFB7
:1021E0005836002000B583B0134B1B686BB14FF01D
:1021F000FF3300930123002208210F48006821F0DB
:1022000085F810F0080FF2D00FE003F03DF80B4B0B
:102210004FF486720A490B4803F086F803F034F84D
:1022200000BFFDE70A2023F0F7FAFFF7D5FF0028EB
:10223000F8D003B05DF804FBC06305200C0306086A
:1022400066030608780306082DE9F04794B00023DA
:10225000ADF84E30A64910A803F0EAF9A5490DA83B
:1022600003F0E6F9A4490AA803F0E2F9FFF74EFBF0
:10227000A24B18604FF4C05021F0C6F90646A0B139
:1022800007F046FA0746E8B1002525B3002D38D0FF
:102290000024002D4FD0002D50D0002D70D0002DE7
:1022A00040F0A1824FF000080FE14FF4C0530093BB
:1022B000934B40F2D7329349934803F035F83746B1
:1022C0000225E2E7914B40F2E1328E498E4803F05D
:1022D0002BF80225DAE7012301930AAB00930DAB3B
:1022E00010AA8B49384607F009FD0028CED0894B4B
:1022F00040F2F1328349844803F016F800240125A6
:10230000C7E74FF4527021F07FF9044638B14FF41B
:10231000C05332463946FFF711FC0546B9E74FF482
:10232000527300937C4B40F202427649764802F0A9
:10233000FBFF0225AFE7FFF7F1F9ACE704F5E07327
:102340000293764B0193764B009304F5CC7304F51E
:10235000C87204F5D27120461DF03CF9054638B12B
:10236000704B40F219426749674802F0DDFF94E77D
:1023700008216D4B186821F08FF86C4B1C608CE7BE
:1023800004F5DC726A49384607F0BCFB002886D0A9
:10239000684B40F22A425B495B4802F0C5FF4FF0B0
:1023A000010892E0644B40F265425649564802F0FB
:1023B000BBFF4FF00108002D48D0002E46D14FF052
:1023C000FF3300930123002204215748006820F0C6
:1023D0009DFFD4F844330193D4F83C330093574B1A
:1023E00040F24D424749564802F09EFFD4F83C1354
:1023F000B4F8442300230093384607F005FA054655
:102400000028D8D055F0F4FB01460DF14E0206A885
:1024100019F07AFB06460028C4D1BDF84E3064227C
:1024200002FB03F30093474B40F25E4235494648B6
:1024300002F07AFFBDF84E00444B03FB00F0444B22
:10244000A3FB0030800923F0E7F9B4E7002D00F08A
:10245000818020461DF063F9384607F0BFFB10214C
:10246000314B186820F0E6FF23F014FE0546D4F83F
:102470001C0321F0B1FB85421BD014F5E07500F080
:102480004581D5F85C31002B00F04C8123F002FE31
:102490000646D5F85C0121F09FFB864200F04E8194
:1024A0004FF0FF31D5F85C0121F062FE002800F00A
:1024B0004C814FF08033C4F83832C4F83C32A4F871
:1024C0004032B8F1000F00F04881B8F1000F40F041
:1024D0006D810026069607960896099633464FF4B6
:1024E00096720A2106A819F045FB4FF0FF3562E706
:1024F000340606084406060850060608543600202E
:102500006006060866030608AC020608940606087C
:1025100000000020C8060608F0060608151D000881
:102520000D19000824070608C0630520583600204E
:10253000ED1800083C070608DC0706086C070608CB
:10254000B40506089407060830060608A0860100B0
:10255000D34D621000238DF8173023F09BFD054604
:10256000D4F81C0321F038FB854206D09F4B40F283
:102570006F429F499F4802F0D7FEA14620461DF0BA
:10258000CEF80DF1170300934FF4FA63002204F51F
:10259000487120461AF02CFB054623F07BFD0646C9
:1025A000D4F81C0321F018FB864206D08F4B40F272
:1025B00079428F498F4802F0B7FE1DB994F8203355
:1025C000002B45D0002D40F0838023F063FD0646AC
:1025D000D4F81C0321F000FB864206D0834B40F266
:1025E0008E428349834802F09FFE834B4FF49262F0
:1025F0007F49824802F098FE04F5E0763046FFF706
:1026000019F9002E4CD0D6F85C31002B54D023F0B1
:1026100041FD8246D6F85C0121F0DEFA824505D004
:10262000724BF9227249734802F07EFE00231A466B
:102630001946D6F85C0121F009FB00284FD1009023
:102640006F4B40F203126A496E4802F06DFE46E09D
:1026500023F020FD0546D4F81C0321F0BDFA854285
:1026600006D0624B40F27F426149624802F05CFE54
:10267000654B4FF490625E49604802F055FE9DF84C
:10268000171048461DF034F8054640BB9DF817303A
:102690002BBB04F5E0714846FFF75EFC05461EE0E3
:1026A00002F0F2FD594BF7225149524802F03CFE2C
:1026B00002F0EAFD00BFFDE702F0E6FD534BF82211
:1026C0004B494C4802F030FE02F0DEFD00BFFDE752
:1026D0004F4B4FF4936246494A4802F025FE15B924
:1026E000002384F82033002D7FF4B3AE1021494B32
:1026F000186820F0D1FE00234FF496720A2106A834
:1027000019F038FA48461CF0B9FFA2E602F0BCFD09
:102710003E4BDD223649374802F006FE02F0B4FD9A
:1027200000BFFDE702F0B0FD384BDE2230493148F2
:1027300002F0FAFD02F0A8FD00BFFDE72B4BE022FE
:102740002B492C4802F0F0FDAAE60090324BEB2218
:1027500027492C4802F0E8FDABE655F049FA01465E
:102760000DF14E0206A819F0CFF9C0B9BDF84E30F0
:10277000642202FB03F30093284B40F2D5421C492C
:10278000274802F0D1FDBDF84E00264B03FB00F0B8
:10279000254BA3FB0030800923F03EF895E6234B40
:1027A00040F2DC421249174802F0BEFD14B1204647
:1027B000FFF740F92FB1384607F010FA384606F017
:1027C000E1FF1821134B186820F034FE184B40F23B
:1027D000F14207490B4802F0A7FD002022F07AFDE4
:1027E00014B0BDE8F0874FF001086EE680030608DC
:1027F00066030608780306083C080608B4050608C0
:10280000B8050608AC020608180806080C030608F6
:102810005C080608C06305209C03060880080608BB
:1028200030060608A0860100D34D6210B8080608DD
:10283000E008060800B58BB0124B019300238DF819
:1028400008308DF8093006930793012309930E4B46
:10285000D3F8882042F48052C3F88820D3F8883017
:1028600003F480530093009B01A810F023FC10B9DF
:102870000BB05DF804FB054BEA220549054802F060
:1028800053FDF5E700300240000C02460C09060833
:102890005D090608AC02060808B50020FEF73CFEFC
:1028A000044B186008B9002008BD03485AF03CFFEB
:1028B000FEE700BF405B002080090608F0B58DB040
:1028C00089B1064614461D460F46C2B11BBB02F035
:1028D000DBFC3E4B94223E493E4802F025FD02F0CF
:1028E000D3FC00BFFDE702F0CFFC384B9222384901
:1028F000384802F019FD02F0C7FC00BFFDE702F006
:10290000C3FC324B93223249324802F00DFD02F0F3
:10291000BBFC00BFFDE74FF6FF7138465BF074F873
:1029200000238DF81C308DF81D308DF81E3008976F
:10293000ADF824000A940B95274B049323F0AAFBCF
:1029400005904FF4967306939DF81C3023BB01212C
:10295000002023F07DFF04AA07A930461CF019FFD0
:10296000044638BB002303934FF47A73009303AB00
:102970004FF0FF321146012023F014FD80B1039B7C
:1029800013F0FF041DD0DBB20093144BC822104992
:10299000134802F0C9FC14E023F07CFB0590D6E755
:1029A0004FF47A7300930F4BCF2209490C4802F081
:1029B000BBFC06E000900C4BD6220549084802F00B
:1029C000B3FCB4FA84F040090DB0F0BD0C03060866
:1029D0005D09060878030608ED290008A409060821
:1029E000AC020608E40906082C0A060800B583B004
:1029F00051B10A7828B1002300930323012123F069
:102A00003BFD03B05DF804FB02F03EFC044B782272
:102A10000449054802F088FC02F036FC00BFFDE7DF
:102A20000C0306085D090608780306082DE9F04145
:102A3000F4B000240294FC22214603A85AF038F88E
:102A4000FFF7F8FEFFF728FFFEF738FC2146204687
:102A500005F0C6F8074600284BD003462E4A4FF42F
:102A6000807102A85AF0D2FE2646431EFF2B43D89F
:102A7000FFF7B8FBFFF7B0FB8046002E45D1FEF70D
:102A80008FFC0446254D2846FEF726FC2846FEF717
:102A90005DFC2846FEF76EFC002CEED105F5805358
:102AA00093F8B042D3F81801FDF760FD00221C4BEB
:102AB000FDF7DEFECDE9000123461A4AC82142A8EF
:102AC0005AF0A4FE0446C728D7DCFFF773FB0028A2
:102AD000D3D0234642AA02A94046FFF7EFFE0128C1
:102AE000CBD0114B40F26B121049114802F01CFC84
:102AF000C3E700200126B8E70E4B40F229120B492C
:102B00000B4802F011FC0126B2E7384620F012FE15
:102B100074B0BDE8F08100BF580A06085C3600209A
:102B200000002440980A0608B40A06085D09060851
:102B3000AC020608700A06082DE9F04182B0804612
:102B40000D46084605F056F9074605F00DF806460D
:102B5000431E052B76D8DFE803F0031F2D3B4949C0
:102B60000021384605F0DEF800902B46494A4FF424
:102B7000007149485AF04AFE0246B2F5007F63DA16
:102B8000454B00219954002A63DDD8F810304248A3
:102B9000984702B0BDE8F0810021384605F0F6F80C
:102BA00000902B463D4A4FF400713B485AF02EFEF0
:102BB0000246E2E70021384605F080F800902B46F7
:102BC000344A4FF4007134485AF020FE0246D4E7EC
:102BD0000021384605F03EF800902B462F4A4FF46E
:102BE00000712D485AF012FE0246C6E72A4C4FF4F7
:102BF0000072294620465AF080FE041BB4F5007F7F
:102C000005DA3D2303702223437002300234B4F509
:102C1000007F0DDBB4F5FF7F02DB214840F2FD149D
:102C2000222303700D2343700A238370E21CA4E760
:102C3000C4F500720146384604F0A2FF0444164869
:102C40002044E7E700229BE7134B002183F8FF11A4
:102C500099E7062F00D05EB92B46124A4FF4007157
:102C60000D485AF0D3FDD8F810300B48984790E73C
:102C70000D4E094D06F1200734460FCC28606960DF
:102C8000AA60EB6026461035BC42F5D1206828606A
:102C9000E9E700BF0C0B0608445B0020180B060890
:102CA000415D0020240B06084C0B060838B505468C
:102CB000002407E0054B53F824102846FFF73CFF9B
:102CC0000134E4B2052CF5D938BD00BF88380608B8
:102CD0002DE9F04184B004469568032914D9D768DA
:102CE000002D00F0C180284605F084F8064604F067
:102CF0003BFF00230393431E052B00F28280DFE895
:102D000003F0053B20556F915A4FE9E70A2203A9CA
:102D100038465AF079FF8046039BBB420ED04146AD
:102D2000304604F0F5FECDF800802B46524A4FF4B1
:102D3000007152485AF06AFD01466DE0002860D1EA
:102D4000EDE70A2203A938465AF05EFF8046039B4E
:102D5000BB420ED04146304604F0A6FECDF80080BE
:102D60002B46454A4FF4007144485AF04FFD014646
:102D700052E0002845D1EDE70A2203A938465AF06F
:102D8000BFFF8046039BBB420ED04146304604F055
:102D9000A5FECDF800802B46394A4FF40071374824
:102DA0005AF034FD014637E058BBEEE70A2203A98A
:102DB00038465AF0A5FF8046039BBB420ED04146E1
:102DC000304604F057FECDF800802B462C4A4FF4D5
:102DD00000712A485AF01AFD01461DE088B9EEE755
:102DE0003946304604F026FE804600972B46254A99
:102DF0004FF4007121485AF009FD0146B8F1000F67
:102E00000AD1062E21D000953B461F4A4FF400718F
:102E10001A485AF0FBFC0146B1F5007F1EDC002980
:102E20001EDC24E03846FDF735FA01463A463046C6
:102E300004F0E4FD804600972B46124A4FF40071DF
:102E40000E485AF0E3FC0146D8E72B460F4A4FF4F0
:102E500000710A485AF0DAFC0146DDE74FF40071D0
:102E6000E3680648984702E023690948984704B098
:102E7000BDE8F081D01309080C0B0608445B002064
:102E8000180B0608700B06087C0B0608240B0608B6
:102E9000A80B060810B5044605F0DAF9012803D09E
:102EA00023690348984710BD236902489847FAE709
:102EB000E40B0608C40B0608F8B5064601291CD920
:102EC0000C461546576839461348FDF7D9F950B9ED
:102ED000022C04D9A9683046FFF72EFE10E03046D8
:102EE000FFF7E4FE0CE039460C48FDF7C9F940B1A4
:102EF00039460B48FDF7C4F948B13369094898478A
:102F0000F8BD2A4621463046FFF7E2FEF8E7304694
:102F1000FFF7C0FFF4E700BF140C0608104F0808C5
:102F2000180C0608200C06080346002001E00130BA
:102F300001331A783AB1202AFAD05A78202AF6D0EA
:102F4000002AF5D1F3E770472DE9F04180460129C9
:102F50001BD95768CFB11B4B1B4A1A60002600E0F3
:102F60000126184B1C6884B17EB923681D68284669
:102F7000FDF790F90246394628465AF01EFD002812
:102F8000EED062680F4B1A60EBE70E4B1B6833B153
:102F9000D8F810201B6858689047BDE8F081094BAD
:102FA000094A1A6008E0D8F810201B685868904752
:102FB000044B1A6852681A60024B1B68002BF2D14E
:102FC000EBE700BF445D00200C000020F8B5074689
:102FD0000B4D00E06D688DB12B681E683046FDF723
:102FE00059F904460246314638465AF0E6FC0028B4
:102FF000F0D13B5D202B01D0002BEBD12846F8BD52
:103000000C00002038B590B10546082020F0FCFAED
:103010000446C0B123F0FEFE256000236360104B20
:103020001A6854601C6023F003FF012038BD02F0D1
:103030002BF90C4B5E220C490C4802F075F902F09A
:1030400023F900BFFDE702F01FF9064B6222064993
:10305000064802F069F902F017F900BFFDE700BF6A
:10306000080000200C0306086D0E06087803060809
:103070002DE9F04782B000AF80460C460846FFF7C6
:10308000A5FF002848D08146EA462046FFF74CFFBE
:1030900005468300073323F00703ADEB030D6E46AF
:1030A00000237B603A1D204920465AF028FD3060FD
:1030B0000124AC4215D23A1D1B4900205AF01FFDD5
:1030C00046F8240008B10134F3E702F0DDF8174BAD
:1030D000B4221749174802F027F902F0D5F800BFCB
:1030E000FDE73A1D104900205AF009FD58B102F0E1
:1030F000CBF80E4BB8220E490E4802F015F902F03B
:10310000C3F800BFFDE7D9F800309B683246294676
:1031100040469847D54603E0D8F81030064898470F
:103120000837BD46BDE8F0874C1606080C030608B4
:103130006D0E060878030608780E060800B583B001
:103140001E48FFF75FFF1E48FFF75CFF1D48FFF7B3
:1031500059FF1D48FFF756FF1C48FFF753FF1C4857
:10316000FFF750FF1B48FFF74DFF1B48FFF74AFFD3
:103170001A48FFF747FF1A48FFF744FF002301935F
:1031800001F042FC01280CD1164B9B6801A898471E
:1031900001990029F8D00028F6DD1248FFF768FFF2
:1031A000F2E7114B40F271121049114802F0BCF8DD
:1031B000002022F08FF803B05DF804FB200E060813
:1031C000641E0608A8280608902806089C280608F9
:1031D00084280608B4280608C0280608501F0608D8
:1031E0007828060804200608C80E06086D0E060892
:1031F000AC0206082DE9F04395B0064691461F46FD
:103200001C9D0369084698470024A04617E00093D8
:103210003B1902AA412103A836F098FA8046E0B98A
:10322000029903A84218134BB3F800C09B7820F80A
:1032300001C0937002310291F36898473034AC4278
:103240000ED2002302934322FF2103A859F030FC41
:103250002B1B2F2BDBD93023D9E73369064898473E
:10326000B8F1000F02D133694846984715B0BDE860
:10327000F08300BFF4200608C80F0608F0B585B03B
:103280000446002303930293042907D91569002DEE
:1032900036D0D66826B9214E214D01E01F4E204D73
:1032A00002AB03AA3146284602F0DAFB00282AD1F5
:1032B00023691C48984723691B489847E7682021E1
:1032C00028465AF0A1FB01462846B847236917480B
:1032D0009847E768202128465AF096FB0146304679
:1032E000B847236912489847039B0BB1029A72B9F9
:1032F000039818B120F01EFA0023039305B0F0BD27
:10330000064E074DCCE723690A489847ECE7009240
:10331000094A0A492046FFF76DFFE9E7D40F06087E
:1033200034060608E00F06080C10060820100608F0
:10333000F420060838100608701006088C100608DD
:103340002DE9F043ADF5437D0646032903D9D16845
:1033500011B9934900E092490BAC02AD284602F046
:1033600067F995E8070084E807004FF4006020F053
:103370004BF90546C0A843F009FA0EA83FF04EFDF0
:103380000EAB884A2146C0A802F096FA074668B1FB
:1033900015B1284620F0CEF90EA83FF0EBFCC0A8EE
:1033A00004F068FA0DF5437DBDE8F08304F0CAFB34
:1033B000C41C204620F028F9804607A854F020F8C5
:1033C000B8F1000F0AD02246774940465AF0CDFAAC
:1033D000221A08EB0001002004F0D2FB414607A8A6
:1033E00054F026F8041E28DB002C44DA002C66DAA0
:1033F000002CC0F2B680042107A854F015F8C0A92B
:1034000007A854F013F80EAB0093664B4FF400621C
:10341000294607A854F060F8041E7EDDB4F5006F5D
:1034200071DB01F031FF614BFA226149614801F023
:103430007BFF01F029FF00BFFDE720463FF0A6FD1E
:10344000A0B120463FF0A2FD8146204640F04CFA54
:1034500078B1204640F048FA0190CDF80090564BE4
:10346000DE225349554801F05FFFBDE7DFF8609168
:10347000EBE75348F0E7802107A853F0E9FF041E6B
:10348000B4DA20463FF082FDA0B120463FF07EFD39
:103490008146204640F028FA78B1204640F024FAD0
:1034A0000190CDF80090474BE3224149434801F099
:1034B0003BFF9BE7DFF81891EBE74148F0E78021FD
:1034C00007A853F0E7FF041E92DA20463FF05EFDA6
:1034D000A0B120463FF05AFD8146204640F004FA54
:1034E00078B1204640F000FA0190CDF80090364BBC
:1034F000E9222F49314801F017FF79E7DFF8D09032
:10350000EBE72F48F0E7A146C4F5006122462944C5
:10351000284659F0B3FA3C4625E0002C02DB4FF078
:10352000000920E020463FF031FDB0B120463FF0D9
:103530002DFD0746204640F0D7F980B1204640F0E7
:10354000D3F901900097214B40F2011218491B4812
:1035500001F0EAFE4FF0000905E01D4FEAE71848C8
:10356000EFE74FF0000907A853F050FFB8F1000F44
:1035700002D0404620F0DEF8002CFFF609AFB9F18A
:10358000000F3FF405AF002D3FF402AFCDF80090DF
:103590002B46104A10493046FFF72CFEF8E600BFD4
:1035A00034060608652E0408D81006080C03060821
:1035B0004911060878030608DC100608AC02060864
:1035C000C4100608541106087C110608B01106083C
:1035D000AC100608D0110608F41106082DE9F047D2
:1035E000ADF58B6D8246032903D9D76817B9934F80
:1035F00000E0924F042907D9D2F81090B9F1000FDA
:1036000004D1DFF8709201E0DFF868924FF40061B6
:10361000012009F035FD05465FAC02AE4946304653
:1036200002F006F896E8070084E807000DF58A60C6
:1036300043F0ACF862A83FF0F1FB62AB804A214650
:103640000DF58A6002F038F98146C0B10026002EDF
:1036500000F04682002D00F043820AA852F021FEBD
:10366000324629460AA853F089F8041EC0F2478260
:10367000002C80F281820AA852F01AFE34E20AA8D5
:1036800053F0AFFA0DF58A610AA853F0D1FA0DF59F
:103690008A610AA853F0CEFA02210AA853F0C3FAAD
:1036A00004210AA853F0C1FA80210AA853F02AFC89
:1036B000041E33DB002C4EDA002C80F29980002CA3
:1036C00080F2DA80002C80F24981002C80F26B813C
:1036D000002C80F28B81002C80F2AB81002CC0F298
:1036E000F88162AB0093564B4FF4006229460AA85A
:1036F00053F02AFC041E40F3CA81B4F5006FC0F2F7
:10370000BC8101F0C1FD4F4B40F2C1124E494F4800
:1037100001F00AFE01F0B8FD00BFFDE720463FF0D2
:1037200035FCA0B120463FF031FC0646204640F073
:10373000DBF870B1204640F0D7F801900096444B7A
:1037400040F25D124049434801F0EEFDB2E7424EBF
:10375000ECE74248F1E707A836F03CFB62AB384A99
:10376000082107A837F069FD041E20DB002CA3DB2D
:1037700007A90AA853F06AFA041E9DDA20463FF012
:1037800005FC88B320463FF001FC0646204640F089
:10379000ABF858B3204640F0A7F801900096304BA4
:1037A00040F26B1228492B4801F0BEFD84E7204609
:1037B0003FF0ECFBA0B120463FF0E8FB0646204678
:1037C00040F092F870B1204640F08EF801900096DB
:1037D000244B4FF4B3721C491E4801F0A5FDC5E708
:1037E0001D4EECE71D48F1E71B4ECFE71B48D4E721
:1037F0001D4A1E490AA853F02FFA041EBFF65FAFF8
:1038000020463FF0C3FBA0B120463FF0BFFB064679
:10381000204640F069F870B1204640F065F801900C
:103820000096134B40F2731207490A4801F07CFDE1
:1038300045E7094EECE70948F1E700BF44060608F2
:10384000652E04080C0306084911060878030608CB
:103850001C120608AC020608AC100608C4100608C4
:103860009412060850120608C8120608D812060854
:10387000E812060834060608002004F063F9C41CA8
:10388000032C37D920461FF0BFFE064698B32246C8
:10389000AA495AF06AF8221A3118002004F070F987
:1038A00031460AA853F0C8F9041E33DB002C2ADB8A
:1038B00031460AA853F0C5F9041E24DA20463FF029
:1038C00065FB002845D020463FF060FB804620463F
:1038D00040F00AF800283FD0204640F005F801905B
:1038E000CDF80080964B4FF4CB729649964801F084
:1038F0001BFD08E00026954B4FF4C3729149924896
:1039000001F012FD924C002E3FF4DCAE30461FF069
:1039100011FFD7E620463FF039FBA8B120463FF023
:1039200035FB804620463FF0DFFF80B120463FF068
:10393000DBFF0190CDF80080864B4FF4C8728149BF
:10394000814801F0F1FCB1E7DFF81482EAE7824830
:10395000EFE7DFF80C82BAE77F48C0E700221146A4
:103960000AA853F0ADF9041EBFF6AFAE20463FF0F3
:103970000DFBA0B120463FF009FB064620463FF074
:10398000B3FF70B120463FF0AFFF01900096734B3C
:1039900040F2A3126B496C4801F0C6FC95E6704EEC
:1039A000ECE76D48F1E70AA853F0D4F9041EBFF61E
:1039B0008FAE20463FF0EAFAA0B120463FF0E6FA8B
:1039C000064620463FF090FF70B120463FF08CFF46
:1039D00001900096634B40F2A9125A495A4801F0EF
:1039E000A3FC75E65E4EECE75B48F1E70AA853F0EE
:1039F000F9F9041EBFF66FAE20463FF0C7FAA0B13A
:103A000020463FF0C3FA064620463FF06DFF70B1F6
:103A100020463FF069FF01900096534B40F2AF12F1
:103A20004849494801F080FC55E64D4EECE74A48CC
:103A3000F1E780210AA853F02DFA041EBFF64EAE1E
:103A400020463FF0A3FAA0B120463FF09FFA064679
:103A500020463FF049FF70B120463FF045FF0190FE
:103A60000096424B40F2B5123649374801F05CFCF3
:103A700034E63B4EECE73848F1E72646C4F50061F2
:103A800022462944284658F0F9FF4C4622E0002CF3
:103A900001DB00261EE020463FF078FAA8B1204660
:103AA0003FF074FA064620463FF01EFF78B12046EC
:103AB0003FF01AFF019000962D4B4FF4E47221491C
:103AC000214801F031FC002604E0254EEBE72248B6
:103AD000F0E700260AA853F090F8002CBFF6B7AD27
:103AE00015B1284609F0E3FA62A83FF043F90DF555
:103AF0008A6003F0BFFE0DF58B6DBDE8F0872046B0
:103B00003FF044FAA8B120463FF040FA81462046F3
:103B10003FF0EAFE80B120463FF0E6FE0190CDF88E
:103B20000090144B4FF4ED720649074801F0FCFB7E
:103B30009EE5DFF82C90EAE70748EFE7D810060883
:103B40008413060849110608AC0206081C1306086F
:103B500080D7FFFF50130608C4100608B8130608E4
:103B6000AC100608F01306082C1406086C1406089E
:103B70009C140608C414060801230A930AA93846AF
:103B800001F002FE00962B46024A03495046FFF719
:103B900031FB70E5F8140608141506082DE9F04FFE
:103BA00087B0029280B18A460646D1B1029B2BB300
:103BB0004FF40061012009F063FA039058B3002527
:103BC000A846A9462F4669E001F05EFB604B40F233
:103BD00041226049604801F0A7FB01F055FB00BF9E
:103BE000FDE701F051FB5A4B40F2422259495A4835
:103BF00001F09AFB01F048FB00BFFDE701F044FB38
:103C0000534B40F243225349534801F08DFB01F0DE
:103C10003BFB00BFFDE7336950489847012500276B
:103C2000039B002B00F09280CAF80030029B1F60BB
:103C3000B5FA85F0400907B0BDE8F08F55B94CB131
:103C40003B190133B3F5006F04D3336943489847F8
:103C500001251EE0B9F1000F34D1DDF810B00B22C0
:103C600059463F4859F0A9FE78B9A4F10B023D49E5
:103C70000BF10B0059F0D4FE10B14FF001090DE02B
:103C8000336939489847012503E033693748984735
:103C90000125B9F1000F2DD1012D50D0B7F5006FDE
:103CA000BED2B8F1000FBBD100230493B36804A8BF
:103CB0009847041E41DD402CC0DD33692C489847ED
:103CC0000125E6E7DDF810B009225946294859F0E8
:103CD00074FE0028DDD1A4F1090222490BF109008C
:103CE00059F09EFE08B1C846D3E733692248984789
:103CF0004D46CEE7B8F1000FCED1002305930094D6
:103D0000049B05AAC7F500610398384435F0B0FD5F
:103D100088B9059B1F44B7F5006FBDD301F0B4FA15
:103D20000B4B40F2A3220B490B4801F0FDFA01F0C6
:103D3000ABFA00BFFDE74D46AEE70125ACE70398BF
:103D40001FF0F8FC002303931F4669E701256FE786
:103D50000C030608491106087803060834150608FE
:103D6000AC1506081C3E0908B8150608FC1506081F
:103D7000681506084416060850160608F0B58FB0F8
:103D800004460E461746002505951D22294606A81D
:103D900058F08EFE029501955CB103A842F0F6FC46
:103DA000032E13D9F96889B1212205A859F019FE0B
:103DB00011E001F069FA2E4B4FF44C722D492E4858
:103DC00001F0B2FA01F060FA00BFFDE721222B49B1
:103DD00005A859F006FE202105A859F015FE202857
:103DE00018D9236926489847236905A89847236965
:103DF000244898470025012D13D0012D1CD002988E
:103E000018B109F054F90023029303A842F0C2FC50
:103E10000FB0F0BD01AA02A92046FFF7BFFE05467C
:103E2000E9E7019A029903A844F0D4FA0028E4D003
:103E3000236915489847E2E703AB019A029905A860
:103E400001F0EEFC48B9236910489847236905A89A
:103E5000984723690E489847D1E723690D4898474A
:103E6000236905A89847236909489847C7E700BF11
:103E70000C0306084911060878030608941606087C
:103E8000A4160608C0160608F41606081817060831
:103E9000401706084817060810B582B000230193A2
:103EA0000093B1B10C4608B301AA6946FFF776FE4C
:103EB000002839D0019B33BB01F0E6F91D4B40F2DD
:103EC000D7221D491D4801F02FFA01F0DDF900BF8E
:103ED000FDE701F0D9F9174B40F2CE2216491748F9
:103EE00001F022FA01F0D0F900BFFDE701F0CCF9B2
:103EF000104B40F2CF221049104801F015FA01F0A2
:103F0000C3F900BFFDE7204652F0CBF9019A0099B2
:103F1000204652F033FC002801DB002005E0009829
:103F20001FF008FC012000E0012080F0010002B039
:103F300010BD00BF0C0306084911060878030608E7
:103F400070B5DEB004460D461646002155911D227F
:103F500056A858F0ADFD684652F0A3F9032D06D9D6
:103F6000F16821B1212255A859F03BFD04E021223E
:103F70001A4955A859F035FD202155A859F044FD9E
:103F800020280DD9236916489847236955A89847D2
:103F90002369144898470020012806D05EB070BD00
:103FA00069462046FFF778FFF6E7694655A801F015
:103FB000EBFB48B923690C489847236955A89847F3
:103FC00023690A489847E9E723690948984723691C
:103FD00055A89847236905489847DFE7440606082F
:103FE00078170608C0160608941706084017060832
:103FF000BC17060870B58CB0044600230B930A93D7
:10400000032903D9D66816B91B4E00E01A4E02AD3B
:104010003146284601F00CFB07AB95E8070083E822
:1040200007001A460AA90BA801F0C6FC98B9236933
:1040300012489847E5682021304659F0E5FC0146D2
:104040003046A84723690E4898470B9B0BB10A9A44
:104050002AB90CB070BD23690A489847EAE7009274
:10406000094A0A492046FFF7C5F80B981FF062FB82
:1040700000230B93EDE700BFD40F0608EC170608EA
:10408000F420060800180608701006088C100608B0
:1040900070B5DEB006460C46154609A852F001F987
:1040A000032C03D9E96811B90F4900E00E4906ACA9
:1040B00002AD284601F0BCFA95E8070084E8070045
:1040C000214609A801F0C6FA08B15EB070BD0B9B8D
:1040D00000930C9B054A06493046FFF78BF809A868
:1040E00052F0E6F8F1E700BF44060608F8140608A7
:1040F00014150608F8B50646012939D90C461546A7
:10410000576839464548FCF7BBF8002834D1022CE3
:104110002BD9AF6839464248FCF7B2F898B1394616
:104120004048FCF7ADF8A0B139463F48FCF7A8F885
:10413000A8B133693D489847336938469847336991
:104140003B48984714E02A4621463046FFF796F848
:1041500011E02A4621463046FFF7F2F80BE02A46E6
:1041600021463046FFF73AFA05E03369314898476F
:10417000336931489847F8BD39463048FCF780F834
:1041800010BB022CF4D9AF6839462548FCF778F803
:1041900070B139462448FCF773F878B13369234885
:1041A0009847336938469847336925489847DFE789
:1041B0002A4621463046FFF7E1FDDCE72A46214644
:1041C0003046FFF7BDFED6E739461E48FCF758F8E3
:1041D0000028CDD1022CCBD9AF6839461048FCF766
:1041E0004FF870B139461048FCF74AF878B1336996
:1041F0000E489847336938469847336910489847BE
:10420000B6E72A4621463046FFF7F4FEB3E72A46D2
:1042100021463046FFF73CFFADE700BF34180608E3
:1042200058F70808401806085806060844180608F3
:104230006418060888180608F8180608C41806083E
:10424000CC180608F018060870B5ADF5667D054671
:104250000C461646002104913C2205A858F028FC83
:10426000012C06D840F6C41634A83EF0D7FD002431
:1042700017E000221146706859F042FD0646F3E748
:104280002B69144898472B691348984734A83EF087
:1042900071FD0DF5667D70BDEB68039914A8984714
:1042A0004034A642EFD900230393402204A934A846
:1042B0003EF0D8FD0028E3D14023009304AB03AACD
:1042C000802114A835F042FA0028E5D02B69034874
:1042D0009847D8E7701E0608C81E06089C1E0608E8
:1042E00008B50A4B834200D008BD3D200EF0CEFE3B
:1042F0004FF4C061064810F0D9F8064AD2F8A4304D
:1043000023F48043C2F8A430EEE700BF140000207D
:1043100000000242000C024610B5BAB00446C822A2
:10432000002108A858F0C4FB0023039304930593CD
:1043300006930793224B9C4201D03AB010BD214A0C
:10434000D2F8A43023F48043C2F8A4300122002321
:10435000CDE9082308A813F07BF960B9194BD3F80D
:10436000A42042F48042C3F8A420D3F8A43003F47C
:1043700080430193019B134BD3F88C2042F0010240
:10438000C3F88C20D3F88C3003F001030293029B16
:104390004FF4C06303930223049300230593069311
:1043A0000723079303A908480FF074FF0122052192
:1043B0003D200EF025FE3D200EF05AFEBDE700BF69
:1043C00014000020000C02460000024208B5002341
:1043D0001A461946024800681FF038FC08BD00BFA5
:1043E000E066002058B109B90020704708B51346AF
:1043F0000A4601460348006820F0EEFB08BD002095
:10440000704700BFDC66002060B109B9002070472A
:1044100008B54FF0FF330A4601460348006820F014
:10442000DBFB08BD00207047DC66002008B54FF0BC
:10443000FF31024B18681FF09BFE08BDE0660020AC
:1044400070B50D4698B1064679B90C46AC4210D10C
:1044500070BD4FF0FF332A1B31190C48006820F063
:10446000B5FA0444AC42F4D3F0E70024FAE70024A0
:10447000ECE700F009FF064B4FF4DA7205490648F5
:1044800000F052FF00F000FF00BFFDE7E4660020EF
:104490000C0306089D1F06087803060830B591B086
:1044A000002100913C2201A858F002FB25E000F019
:1044B000EBFE424B4FF4B4724149424800F034FFE6
:1044C00000F0E2FE00BFFDE7002304223E493F4822
:1044D000006820F07BFA34E000231A4619463C4875
:1044E00000681FF0B3FB002340226946374800688C
:1044F00020F072FB0446002C4ED105234022694671
:104500003248006820F068FB04460028F3D10021FF
:104510002F4B18681FF02CFE0128ECD12D4B18688A
:10452000002340F2FE722C4920F056FB044600F1B5
:104530008203B3F5106FBAD830B3284B1B68012B38
:10454000C2D0224D002322462349286820F03EFA9B
:10455000002302222249286820F038FA1F4B1B68EA
:10456000012BB9D1002302221E49286820F02EFA1F
:104570001D4B1B68002BAFD01B4B1A6800231B4937
:10458000286820F023FAA7E700231A4619461048A6
:1045900000681FF05BFBAEE70121002022F058F914
:1045A000A2B26946124816F067FC0028A5D14FF068
:1045B000FF320121084621F09DFE9EE70C0306080C
:1045C0009D1F060878030608AC1F0608E466002055
:1045D000E0660020EC6E0020CC5E0020D06600205B
:1045E000F4200608B41F0608CC660020485D0020B1
:1045F0001400002000B585B00023039303AA0192A4
:10460000009303234FF0004201210748006821F086
:10461000DDFF039B2BB14FF0E0234FF08052C3F836
:10462000042D05B05DF804FBD466002010B584B0FD
:10463000044600230393002938D00A46324B1B68F6
:1046400093B132498B421BD031498B421ED000F0CE
:104650001BFE304B4FF482722F49304800F064FE4D
:1046600000F012FE00BFFDE700F00EFE294BF52220
:1046700029492A4800F058FE00F006FE00BFFDE779
:1046800042F08042204B2249196004E042F000527F
:104690001D4B1E49196003AB0193002300930323B4
:1046A00001211F48006821F091FF02E0164B1B68B2
:1046B00083B18022144B1968204617F0E9F9B0B98C
:1046C000039B2BB14FF0E0234FF08052C3F8042D31
:1046D00004B010BD00F0D8FD0E4B40F20F120E4991
:1046E0000E4800F021FE00F0CFFD00BFFDE700F016
:1046F000CBFD084B4FF48B720749084800F014FEBD
:1047000000F0C2FD00BFFDE7C85D0020CC5D0020C9
:104710004C5E00200C0306089D1F0608780306085F
:10472000D466002010B584B01E4B1F4A1A600021C9
:104730001E48FFF77BFF0AE0002322461A491C4867
:10474000006820F043F900E02046A0421FD100217C
:1047500003911E23009303AB4FF0FF32012021F0A1
:1047600021FE0128F3D1039830F0604402D010F00C
:10477000804FE1D1002CE7D010F00050E5D00023AD
:1047800022460C490A48006820F020F9DDE7201A8B
:104790000090094B40F23D120849094800F0C4FD61
:1047A000D5E700BFC85D0020CC5D002014000020CC
:1047B000DC6600204C5E0020B81F06089D1F06081E
:1047C0003006060800B583B00023019301AA012139
:1047D000074B186821F0BCFF019B2BB14FF0E02381
:1047E0004FF08052C3F8042D03B05DF804FB00BF06
:1047F000D866002040B110B50446FBF74BFD0146DA
:104800002046FFF71DFE10BD7047000070B5002563
:10481000644B1D60644B036083F87F500221634842
:10482000FFF70EFE624B01221A602C467EE07F2BC2
:1048300050D04FF0FF315F4B18681FF099FC0128F2
:1048400074D1584E3368012157481844FFF7F8FDDA
:1048500033680133336000231A461946554800680F
:104860001FF0F4F962E04F4B1B68F3B14D4B1A682F
:104870004D49002088541D684FF0FF314D4B18689A
:104880001FF076FC0446012801D001244EE00221ED
:104890004948FFF7D5FD0021454B19600B460A46F4
:1048A000444800681FF0D2F940E04FF0FF31414B1F
:1048B00018681FF05DFC012838D13A4B1A680021B6
:1048C0003948815419600B460A463A4800681FF07F
:1048D000BDF92BE0334B1B6843B34FF0FF31354B31
:1048E00018681FF045FC012820D12E4B1A682E496C
:1048F000002088541B681BB12A4B1B68013BC8541D
:10490000284A1368013B13602C48FFF773FF00230C
:104910001A461946274800681FF098F906E0214B0F
:1049200000221A6004212648FFF78AFD1D4B1B68F0
:104930007F2B35D8002C33D11A4B1B684FF0FF3238
:10494000012119481844FFF74DFD0028EED0154B02
:104950001B68154AD35C0D2B3FF669AF0D2B3FF654
:1049600068AF01A252F823F06748000833480008F6
:10497000334800081F49000833480008334800083E
:104980003348000833480008D54800083348000879
:1049900067480008334800083348000867480008A3
:1049A000284670BDCC660020485D0020B41F060874
:1049B000D0660020E0660020F4200608E81F060804
:1049C000EC1F060808B5024816F0C8FA08BD00BF7B
:1049D0001400002010B5094C204616F07DF9084A55
:1049E0000B21204616F0A4F9064A0C21204616F0A9
:1049F0009FF9204616F0D0FE204610BD140000207E
:104A000019430008E142000830B583B003220021B9
:104A100001201FF091F83F4B18603F4D284616F0DB
:104A20005BF9002201214FF400701FF061FF3B4B46
:104A30001860002208214FF410601FF059FF384B16
:104A40001860384A0B21284616F072F90446364A97
:104A50000C21284616F06CF9204310F0FF0428D0F2
:104A600064B3002C40D0002C46D0002C4CD02F4BEF
:104A700001931E23009300234FF480622C492D489C
:104A800020F0F2FB2C4B01931823009300234FF4EA
:104A900080622A492A4820F0E7FB00231A4619467B
:104AA0001C4800681FF0D2F8B4FA84F0400903B043
:104AB00030BD284616F070FE0446D1E7164D214A57
:104AC0000121284616F034F90443E4B21E4A0421B9
:104AD000284616F02DF90443E4B21C49284616F086
:104AE000A5F90443E4B2BCE74FF020410A4816F0B0
:104AF00085FF0443E4B2B6E74FF02061064816F0A4
:104B0000A2FF0443E4B2B0E7034816F053FF0443A6
:104B1000E4B2ACE7E066002014000020DC66002070
:104B2000E466002019430008E1420008D466002032
:104B3000F41F060825470008D8660020FC1F060859
:104B40009D440008C5470008F54500082D460008AB
:104B5000436D006B181A8008023070472DE9F0434E
:104B60008BB0074620F01EFD044600EBC00080001D
:104B70001EF04AFD28B306460025099509AA2146DC
:104B800021F02AFA8046099B3D4AA2FB03235B09D8
:104B900009933C4C3C4A4FF40071204658F036FED5
:104BA0003B69204698473B69384C204698473B690B
:104BB000374898473B69374898473B6920469847AC
:104BC00022E03B693448984756E0DFF8D4E0A16919
:104BD000DFF8B0900792CDF818C00590099AB1FBA4
:104BE000F2F204922269039262690292626801926F
:104BF000CDF800E0294A4FF40071484658F006FE0F
:104C00003B69484698470135454532D205EBC50317
:104C100006EB830456F82300FFF79AFFB4F820C090
:104C2000A0EB0C02642303FB02F2B2FBF0F2A368D8
:104C3000217B042917D80FF2080E5EF821F000BF7F
:104C4000CB4B00086D4C0008554C00085B4C00082D
:104C5000614C0008DFF84CE0B9E7DFF84CE0B6E75C
:104C6000DFF848E0B3E7DFF848E0B0E7DFF844E01A
:104C7000ADE730461EF05EFD0BB0BDE8F08300BF2F
:104C80001F85EB51445B002088200608A020060801
:104C9000F82006085021060854200608A821060816
:104CA0004C20060830200608382006084420060854
:104CB0002020060828200608F0B583B0054620F01D
:104CC00071FC074600EBC00080001EF09DFC06460C
:104CD000D0B10024019401AA394621F07DF9234680
:104CE00083420AD203EBC30206EB82029168A94217
:104CF00001D00133F4E7146800E0002430461EF0D0
:104D000019FD204603B0F0BD0446FAE710B504468D
:104D10000339162912D8DFE801F00C111111111115
:104D20001111111111110C11111111111111121276
:104D3000150020F0BFFE204620F0CCFA10BD20F078
:104D4000B9FEFBE720F07CFBF8E700002DE9F04717
:104D500088469146002426464FF00F0A0BE0451C7A
:104D60000A220021284658F0CBFF0746A0B15FFA7F
:104D700080FAF6B90134444522D259F82400037868
:104D80002D2BECD00A22002158F0BAFF0646F0E79E
:104D90000C4B13F837A0ECE7072FEAD8094B03EBCD
:104DA000C70329465868FBF76BFA0028F0D0013793
:104DB000F2E73046FFF780FF5146FFF7A7FFD9E73C
:104DC000BDE8F087D80000202DE9F04788469146DD
:104DD000002426464FF00F0A1CE0451C0A22002141
:104DE000284658F08DFF074630B15FFA80FA1BE085
:104DF000124B13F837A017E0072F15D80F4B03EB12
:104E0000C70329465868FBF73BFA0028F0D0013762
:104E1000F2E7013444450ED259F8240003782D2BD3
:104E2000DBD020F021FD0646002EF2D05146304660
:104E3000FFF76CFFEDE7BDE8F08700BFD80000206A
:104E400008B500F021FA054B40F29D2204490548BF
:104E500000F06AFA00F018FA00BFFDE70C0306083C
:104E600039220608780306082DE9F04F8DB0044674
:104E7000884601263546914641E07B782D2B12D09D
:104E800051D36D2B4FD8622B4DD3623B0B2B4AD89D
:104E9000DFE803F03349494949490649490649557C
:104EA0004FF480652AE03946A348FBF7E9F900286A
:104EB00048D03946A148FBF7E3F9002845D03946E8
:104EC0009F48FBF7DDF9002841D039469D48FBF7A4
:104ED000D7F900283ED039469B48FBF7D1F9002886
:104EE0003BD0236999489847236959F80A009847A5
:104EF000236997489847002500E00125013646457B
:104F00002DD24FEA860A59F826703B782D2BB4D063
:104F100023698E489847236959F8260098472369E2
:104F20008B489847EAE7236988489847236959F8E6
:104F30000A0098472369864898470025DEE74FF422
:104F40008015DBE74FF47A75D8E7824DD6E74FF44A
:104F50008065D3E74FF48015D0E70125CEE7002D1B
:104F600000F0C7807B4B9D4200F0CC8000F2C480F3
:104F7000B5F57A7F00F0C980B5F5806F40F0C88044
:104F8000DFF80C82B8F1000F00F0C8801EF01EFCA4
:104F900007461EF021FC0646C7F5483AC0F54839D9
:104FA0004FF4483BBBFBF5FBB7FBF5F30593B0FBB8
:104FB000F5F20692BAFBF5F20792B9FBF5F2089208
:104FC000642303FB07F1644AA2FB0101090C099168
:104FD00003FB06F1A2FB0101080C0A9003FB0AF196
:104FE000A2FB0101080C0B9003FB09F5A2FB0525B0
:104FF0002D0C2369594898474346594A4FF400718C
:10500000584858F003FCE368DFF858813C214046DB
:105010009847236954489847642302934FF44833D0
:105020000193CDF800B0514B514A4FF40071404606
:1050300058F0ECFBE3683C214046984709990291FF
:105040000197059B00934B4B494A4FF40071404632
:1050500058F0DCFB0146B0F5007F01D340F2FF11B0
:10506000E368404F384698470A9B02930196069B97
:105070000093414B3E4A4FF40071384658F0C6FB4E
:105080000146B0F5007F01D340F2FF11E368354ED1
:10509000304698470B9B0293CDF804A0079B0093E2
:1050A000364B334A4FF40071304658F0AFFB01469F
:1050B000B0F5007F01D340F2FF11E368294E30467E
:1050C00098470295CDF80490089B00932C4B284AF2
:1050D0004FF40071304658F099FB0146B0F5007F5F
:1050E00001D340F2FF11E3681E48984723691B482B
:1050F00098470DB0BDE8F08FB5F5801F0BD1DFF8F4
:1051000094803FE7DFF890803CE7DFF8908039E754
:10511000DFF88C8036E7DFF8888033E700F0B4F8FA
:10512000184B40F213221849184800F0FDF800F01F
:10513000ABF800BFFDE700BF702206087822060822
:10514000802206088822060890220608982206086F
:10515000F420060840420F001F85EB51B8220608D4
:10516000F8220608445B002034230608742306084E
:1051700080230608AC230608B8230608C8230608BF
:10518000D42306080C03060839220608780306080B
:1051900060220608682206084822060850220608EF
:1051A0005822060808B5036908489847642020F08B
:1051B00033FBBFF34F8F0649CA6802F4E062054B28
:1051C0001343CB60BFF34F8F00BFFDE7E823060812
:1051D00000ED00E00400FA052DE9F04184B004463A
:1051E00020F0DAF9204BA3FB00234FEA136E1F4A8D
:1051F00002FB1E0E1E4EA6FB0021490D1D4A02FB9E
:1052000011011D4FA7FB002C4FEA9C3C4EF660227B
:1052100002FB1C0CDFF86C80A8FB0025AD094FF4E5
:105220007A7202FB15020392A8FB0C2C4FEA9C1227
:105230000292A7FB0121890B0191A6FB0E12520DD0
:1052400000921B0E0D4A4FF400710D4858F0DEFA23
:10525000431EB3F5FF7F03D80146E368084898472B
:1052600004B0BDE8F08100BF3BD4B531005C260539
:10527000B17C219580EE360073B2E745FC23060829
:10528000445B0020D34D621070B51B4B186808B109
:105290000FF022FFFFF79EFB184B186002E00FF0A3
:1052A0001BFFECB1164B1868164E002340F2FE723D
:1052B00031461FF01BFD0446104D42F2107382B2BE
:1052C0003146286816F0B5F942F2107302220E49F1
:1052D000286816F0AEF9084B18680028DFD1E0E71F
:1052E0000A4C0122802120460FF06BF90022402158
:1052F00020460FF066F970BD4C700020E86E00206B
:10530000EC6E0020E8660020F4200608001C024233
:1053100008B5012200214FF480501FF0E9FA014B3B
:10532000186008BDEC6E002008B42DE9F04384B08D
:1053300004460D46164620F0B3FE01282DD1DFF8B5
:105340001C9120F0ADFE02282CD00027DFF804814C
:10535000002388F8003020F01FF9CDF8049020F0E9
:105360007F4000902346374A40F2FE71404658F095
:105370004DFA0CAB03930B9A40F2E27108F11C005A
:1053800058F0F4FC002811DD00F11C0440F2FD731C
:105390009C421BD940F2FE7418E0002020F008F96E
:1053A0008146CEE720F0F0F80127CFE7FFF76CFF4A
:1053B000254BEA2225492648FFF7B6FFFFF764FF91
:1053C00000BFFDE723480022C2541C4644B1631EBF
:1053D0002048C05C0D28F5D00A28F3D00028F1D071
:1053E0001DB116B1B4F5006F09D32146194800F07C
:1053F00073F81FBB04B0BDE8F04301B070470096DE
:105400002B46154AC4F500611248204458F0FEF9B5
:10541000002806DD0444B4F5006FE6D34FF40064C1
:10542000E3E7FFF731FF084B40F20B12074908484A
:10543000FFF77AFFFFF728FF00BFFDE720F06EF9C6
:10544000D8E700BFD42806080C030608312906084F
:1054500078030608E86600203C290608CC280608E0
:10546000F8B504460D4620F01BFE02280ED00D4E66
:105470000D4F3B46AAB22146306816F0DAF83B469B
:1054800002220A49306816F0D4F8F8BDFFF7FCFE96
:10549000074B582207490848FFF746FFFFF7F4FE7D
:1054A00000BFFDE7E86E0020A0860100F42006089A
:1054B0000C030608312906087803060808B5FFF72B
:1054C00089FA034B186002210248FFF7C9FF08BDA3
:1054D000E86E0020F420060870B582B005460C4640
:1054E00020F0DEFD012817D021F05CFD012819D045
:1054F000344B1B68002B50D0324B18681FF046FA13
:1055000004280DD9021FA24253D22E4B1868002343
:1055100029461FF05BFA03E021462846FFF7A0FF6B
:1055200002B070BD00230193264B1B680BB321F022
:1055300079FD0646234B18681FF028FA0246042816
:105540000AD9031F211D99421FD91E4B186801ABB0
:10555000083A29461FF0E4FA304621F06EFD019B1F
:10556000002BDDD04FF0E0234FF08052C3F8042D24
:10557000D6E7FFF789FE144B7C2214491448FFF745
:10558000D3FEFFF781FE00BFFDE70E4B186801ABAD
:10559000224629461FF0C4FADEE7FFF775FE0A4BE4
:1055A00096220A490A48FFF7BFFEFFF76DFE00BFCB
:1055B000FDE7044B18680023224629461FF006FA2F
:1055C000AEE700BFEC6E00200C0306083129060888
:1055D0007803060810F5845F1DD004DD10F16E0F0E
:1055E00020D020B9704710F5225F16D003DA0028CA
:1055F0000EDB0020F6E710F51E5F11D010F5A45F5A
:1056000001D10A48704710F5205FF0D10748704774
:105610004FF0FF307047054870476FF00200704749
:10562000024870476FF00500704700BFEEFFFFF7BC
:1056300010B50446002303604360836039B1084617
:10564000A160202158F0E0F9606003232370204618
:1056500010BD0000F0B585B090B10C46E1B10B78FB
:10566000022B50D0032B78D0012B21D03D4B4FF48F
:1056700087723D493D48FFF757FE6FF0010020E07B
:10568000FFF702FE3A4BC22237493A48FFF74CFE79
:10569000FFF7FAFD00BFFDE7FFF7F6FD344BC3222D
:1056A00031493448FFF740FEFFF7EEFD00BFFDE74C
:1056B0004A68896851F078F8051E04DB2846FFF730
:1056C00089FF05B0F0BDA668676828463DF05EFC1E
:1056D000A8B128463DF05AFC044628463EF004F99D
:1056E00078B128463EF000F90390029401970096A5
:1056F000214BCD221C491D48FFF716FEDEE71F4C4B
:10570000EBE71F48F0E74A68896851F041F8051E49
:1057100003DB2846FFF75EFFD3E7A66867682846E5
:105720003DF034FCA8B128463DF030FC0446284644
:105730003EF0DAF878B128463EF0D6F803900294AD
:10574000019700960F4BDA2207490848FFF7ECFD56
:10575000DFE70A4CEBE70A48F0E7896800F0BEFB98
:10576000AFE700BF282A06088C290608AC02060805
:105770000C0306087803060898290608AC100608EA
:10578000C4100608E029060810B584B00023019370
:105790000293039380B10C460146D4B101A8FFF7F0
:1057A00047FF9DF80430022B20D9032B20D121463E
:1057B000039800F0F7FA27E0FFF766FD134B40F27D
:1057C0001F1213491348FFF7AFFDFFF75DFD00BF40
:1057D000FDE7FFF759FD0D4B4FF490720C490D4852
:1057E000FFF7A2FDFFF750FD00BFFDE75BB24BB92D
:1057F000094B4FF4AB7206490848FFF795FD6FF06F
:10580000010001E06FF0010004B010BD0C030608B8
:105810008C29060878030608282A0608AC02060820
:1058200010B584B01C46002301930293039378B112
:105830000146D4B101A8FFF7FBFE9DF80420022A1F
:1058400020D9032A20D12146039800F069FD27E0E2
:10585000FFF71AFD134B4FF4B47213491348FFF7C7
:1058600063FDFFF711FD00BFFDE7FFF70DFD0D4BD9
:1058700040F269120C490D48FFF756FDFFF704FD91
:1058800000BFFDE752B24AB9094B4FF4CF72064947
:105890000848FFF749FD6FF0010001E06FF00100DB
:1058A00004B010BD0C0306088C290608780306080E
:1058B0004C2A0608AC02060870B584B070B10C46DC
:1058C0008446C1B10978022922D9032922D10022B4
:1058D0000146A06800F0E4F904B070BDFFF7D4FC05
:1058E0002D4B40F2AF122D492D48FFF71DFDFFF75C
:1058F000CBFC00BFFDE7FFF7C7FC274B4FF4D87286
:1059000026492748FFF710FDFFF7BEFC00BFFDE763
:1059100049B249B9234B40F22B2220492248FFF7D4
:1059200003FD6FF00100D7E7606870B3A16879B339
:1059300002930192002300930246604642F0CEFBA0
:10594000051E03DB2846FFF745FEC5E7A668284687
:105950003DF01CFBA8B128463DF018FB0446284644
:105960003DF0C2FF78B128463DF0BEFF02900194A1
:1059700000960E4B4FF4E37208490B48FFF7D4FC36
:10598000E0E70B4CEBE70B48F0E76FF00100A3E713
:105990006FF00100A0E700BF0C0306088C29060881
:1059A00078030608B02A0608AC020608702A060822
:1059B000AC100608C4100608F0B583B0002838D033
:1059C0000D4614460646002936D0002A37D01378F3
:1059D000022B10D9032B10D1926800F04FFC054622
:1059E000A0B1A36800931A4B40F2922219491A48B9
:1059F000FFF79AFC0AE05BB25BB9184B40F2C12298
:105A000014491548FFF790FC6FF00105284603B0D4
:105A1000F0BD5068B0B19368BBB11DF0F5FD07460D
:105A20006268A16857F01DF8376063682B60002535
:105A3000ECE76FF00105E9E76FF00105E6E76FF0CD
:105A40000105E3E76FF00105E0E76FF00105DDE731
:105A5000CC2A06088C290608AC020608B02A0608DB
:105A600042B370B586B00C461D4616462BB338B30C
:105A700049B301466846FFF7DBFD214603A8FFF75F
:105A8000D7FD9DF80C20022A08D9032A08D12B46FD
:105A900032460599029800F0CFFA19E052B2AAB93D
:105AA0000C4B40F2FD220C490C48FFF73DFC6FF017
:105AB00001000DE06FF0010070476FF0010007E09A
:105AC0006FF0010004E06FF0010001E06FF00100F1
:105AD00006B070BDB02A06088C290608AC0206087C
